{"abi":[{"type":"function","name":"increment","inputs":[],"outputs":[],"stateMutability":"nonpayable"},{"type":"function","name":"number","inputs":[],"outputs":[{"name":"","type":"uint256","internalType":"uint256"}],"stateMutability":"view"},{"type":"function","name":"setNumber","inputs":[{"name":"newNumber","type":"uint256","internalType":"uint256"}],"outputs":[],"stateMutability":"nonpayable"},{"type":"event","name":"SimpleEvent","inputs":[{"name":"amount","type":"uint256","indexed":false,"internalType":"uint256"},{"name":"account","type":"address","indexed":false,"internalType":"address"}],"anonymous":false}],"bytecode":{"object":"0x6080604052348015600e575f5ffd5b506102d88061001c5f395ff3fe608060405234801561000f575f5ffd5b506004361061003f575f3560e01c80633fb5c1cb146100435780638381f58a1461005f578063d09de08a1461007d575b5f5ffd5b61005d60048036038101906100589190610133565b610087565b005b6100676100df565b604051610074919061016d565b60405180910390f35b6100856100e4565b005b805f819055507f740677deb12c439a0547bc2722d9141fd4e57c1a92e99934c2802af205870464613fac739f2cd91d150236ba9796124f3dcda305c3a2086c6040516100d4929190610207565b60405180910390a150565b5f5481565b5f5f8154809291906100f59061025b565b9190505550565b5f5ffd5b5f819050919050565b61011281610100565b811461011c575f5ffd5b50565b5f8135905061012d81610109565b92915050565b5f60208284031215610148576101476100fc565b5b5f6101558482850161011f565b91505092915050565b61016781610100565b82525050565b5f6020820190506101805f83018461015e565b92915050565b5f819050919050565b5f819050919050565b5f6101b26101ad6101a884610186565b61018f565b610100565b9050919050565b6101c281610198565b82525050565b5f73ffffffffffffffffffffffffffffffffffffffff82169050919050565b5f6101f1826101c8565b9050919050565b610201816101e7565b82525050565b5f60408201905061021a5f8301856101b9565b61022760208301846101f8565b9392505050565b7f4e487b71000000000000000000000000000000000000000000000000000000005f52601160045260245ffd5b5f61026582610100565b91507fffffffffffffffffffffffffffffffffffffffffffffffffffffffffffffffff82036102975761029661022e565b5b60018201905091905056fea264697066735822122003ab71e49323550cf0ab2dd10edf07986743d5611c229839e5f51460000b35e864736f6c634300081e0033","linkReferences":{}},"methodIdentifiers":{"increment()":"d09de08a","number()":"8381f58a","setNumber(uint256)":"3fb5c1cb"},"id":16}