{"abi":[{"type":"function","name":"fire","inputs":[{"name":"number","type":"uint256","internalType":"uint256"},{"name":"account","type":"address","internalType":"address"}],"outputs":[],"stateMutability":"nonpayable"},{"type":"event","name":"SimpleEvent","inputs":[{"name":"amount","type":"uint256","indexed":false,"internalType":"uint256"},{"name":"account","type":"address","indexed":false,"internalType":"address"}],"anonymous":false}],"bytecode":{"object":"0x6080604052348015600e575f5ffd5b506101d08061001c5f395ff3fe608060405234801561000f575f5ffd5b5060043610610029575f3560e01c80633f389e281461002d575b5f5ffd5b61004760048036038101906100429190610117565b610049565b005b7f740677deb12c439a0547bc2722d9141fd4e57c1a92e99934c2802af205870464828260405161007a929190610173565b60405180910390a15050565b5f5ffd5b5f819050919050565b61009c8161008a565b81146100a6575f5ffd5b50565b5f813590506100b781610093565b92915050565b5f73ffffffffffffffffffffffffffffffffffffffff82169050919050565b5f6100e6826100bd565b9050919050565b6100f6816100dc565b8114610100575f5ffd5b50565b5f81359050610111816100ed565b92915050565b5f5f6040838503121561012d5761012c610086565b5b5f61013a858286016100a9565b925050602061014b85828601610103565b9150509250929050565b61015e8161008a565b82525050565b61016d816100dc565b82525050565b5f6040820190506101865f830185610155565b6101936020830184610164565b939250505056fea264697066735822122027fb520727de253565760d7e42a739f3ee952cd02f3ddfee0a6ed65abe5c300764736f6c634300081e0033","linkReferences":{}},"methodIdentifiers":{"fire(uint256,address)":"3f389e28"},"id":16}